S01800006275696C642F6D6963617A2F6D61696E2E73726563E5
S11300000C9449000C9442180C944C180C945618F7
S11300100C9460180C946A180C9474180C947E1840
S11300200C94B9180C9468000C9468000C94E816AD
S11300300C9443160C94D2160C9425180C94D615D3
S11300400C941B160C94C3180C9468000C94680050
S11300500C9468000C9468000C9468000C9468007C
S11300600C94DD160C9468000C9468000C946800E1
S11300700C9468000C9468000C9468000C9468005C
S11300800C9468000C9468000C94680000081C1818
S1130090141011241FBECFEFD0E1DEBFCDBF11E09D
S11300A0A0E0B1E0E4E0F6E300E00BBF02C007909B
S11300B00D92A631B107D9F71AE0A6E1B1E001C06B
S11300C01D92A23EB107E1F70E94EF130C94001BAE
S11300D00C940000362F272FFC0143835283618345
S11300E07083BA01832F922F0895FC01918180E0DF
S11300F0208130E0282B392BC90108959FB7F8944B
S113010080931D029FBF0895282F9FB7F89481E024
S113011030911D02321380E09FBF08958091060143
S1130120882339F481E090912401923019F080E021
S1130130089580E00895C0980895B89A08958FB7F7
S1130140F89410921C028FBF08959FB7F89481E031
S113015020911C02211180E09FBF089586B7089565
S1130160FC01218130E0908180E0282B392BC901EA
S113017008955F926F927F928F929F92AF92BF92F7
S1130180CF92DF92EF92FF920F931F935FB6F89492
S1130190A0909F01B090A001C090A101D090A201B5
S11301A09501A60160E070E080E090E0FEE4AF2EEF
S11301B0E3E8BE2ECC24DD24EE24FF2400E010E08E
S11301C00E94281939014A0100E20E94F2195901DA
S11301D06A01A401930156954795379527952A0DF1
S11301E03B1D4C1D5D1D57FF05C05F772F5F3F4FC3
S11301F04F4F5F4F20939F013093A0014093A10183
S11302005093A2015FBEC9011F910F91FF90EF901F
S1130210DF90CF90BF90AF909F908F907F906F9022
S11302205F900895882311F06E9A08956E9808954A
S1130230C09A089587B78F7E87BF08954FB7F89403
S11302402091F8013091F9018CB59DB556B752FF54
S113025004C02F5F3F4F8CB59DB54FBF40E050E0C9
S1130260A90133272227A0E0B0E0282B392B4A2B01
S11302705B2BB901CA010895DE9A0895DE980895AA
S113028089B78F7B89BF089587B78F7D87BF08950E
S1130290DF93CF93CDB7DEB728970FB6F894DEBFC0
S11302A00FBECDBF20E032E14DE65CE46FE470E0C8
S11302B0809101019091000128960FB6F894DEBF59
S11302C00FBECDBFCF91DF9108958091D2028F3FB1
S11302D089F0282F30E0F901E65BFE4F908190937E
S11302E0D2029F3F11F49093E00A265B3E4F9FEFAA
S11302F0F9019083089583B783BF00B600FCFDCF56
S11303000895FC01238130E040E050E0808190E0DA
S1130310A0E0B0E0B82FAA2799278827282B392BEB
S11303204A2B5B2B618170E080E090E0CB01772762
S11303306627262B372B482B592B828190E0A0E08F
S1130340B0E0BA2FA92F982F8827282B392B4A2BB6
S11303505B2BB901CA01089581E0849B80E0089574
S1130360882311F06F9A08956F980895EF92FF9281
S1130370CF93DF93E82EE7017E01F92EE701C70151
S113038001960E947500E92FE695E695F0E0E3708A
S1130390F070EE0FFF1FE35FFE4F20813181892F44
S11303A0829586958695837090E08430910540F41B
S11303B0FC01EE0FFF1FE35FFE4F8081918102C0BD
S11303C08CE99FEF280F391F2A5F3F4F2C0F3D1FE9
S11303D0C901DF91CF91FF90EF90089580E00E94D2
S11303E01201BA9ABB98B99A0E949D006C9A80E057
S11303F00E94B0016B986A9881E00E941201709A81
S11304008DB18C7F8DB908959FB7F894E82FF0E0F3
S1130410E65BFE4F20812F3F49F421E030E040911C
S1130420E00A481729F020E030E002C021E030E083
S11304302115310589F42091D2022F3F19F48093BC
S1130440D20206C0E091E00AF0E0E65BFE4F808352
S11304508093E00A80E001C085E09FBF08951F9368
S1130460182F81E00E9412011FB9779BFECF8FB134
S11304701F910895EF92FF920F931F93182F062F49
S1130480E72EFFB6F8940E94A500882319F0FFBE5A
S113049080E00AC0FFBE812F0E942F028E2D0E9491
S11304A02F02802F0E942F021F910F91FF90EF9037
S11304B00895CF92DF92EF92FF920F931F93CF9301
S11304C0DF934FB7F8940091DB021091DC02E090C7
S11304D01502F0901602C091F001D091F101209123
S11304E02E0130912F01CE010A962817390708F4FE
S11304F0C9014FBF6C010894C108D10813C001158C
S1130500110529F0F801EC0FFD1F808101C080E086
S11305100E942F02E114F10421F0F701EC0FFD1FFA
S113052080832196CC15DD0550F381E00E94B00153
S11305308FB7F8940115110531F0F801EC0FFD1F88
S113054090819FB901C01FB8D093F101C093F0010D
S11305508FBF80E0DF91CF911F910F91FF90EF90BB
S1130560DF90CF9008952FB7F89450932F014093C4
S11305702E019093DC028093DB0270931602609349
S113058015021092F1011092F0012FBF411551058F
S113059021F08FB10E945902089589E00E9404025B
S11305A080E008950F931F93CF93DF93EC01062F00
S11305B01FB7F8940E94A500882319F01FBF10E00C
S11305C012C01FBF8FE790E09093B2018093B101F6
S11305D08FE70E942F02182F80E090E0BE01402F89
S11305E050E00E94B302812FDF91CF911F910F91B0
S11305F008950F931F93CF93DF93C0919D01D091E2
S11306009E011AA5112309F41FE10E949B00809109
S11306105F01811739F0612F70E0606E706885E1C9
S11306200E943A0210935F0108811FB7F8940E9458
S1130630A500882311F01FBF12C01FBF8EE390E0F6
S11306409093B2018093B1018EE30E942F02402F58
S11306504150CE0160E070E050E00E94B302DF91AF
S1130660CF911F910F9108958FB7F89410921E02A5
S11306708FBF08950F931F931FB7F89402B70E947A
S1130680AE002091310130913201409133015091FB
S1130690340181FF0FC091B782B72F5F3F4F4F4F97
S11306A05F4F290F311D411D511D280F311D411D63
S11306B0511D04C0200F311D411D511D1FBFB90123
S11306C0CA011F910F91089580E090E001C0019646
S11306D084309105E4F390931A01809319010895ED
S11306E0CF92DF92EF92FF920F931F931FB7F8946C
S11306F001B7C2B60E94AE000C1511F081FF02C012
S11307001FBF6BC08091BB018823D1F10E943A03C3
S1130710209118023091190240911A0250911B0243
S1130720C0904301D0904401E0904501F09046010F
S1130730621B730B840B950B6C157D058E059F0551
S113074028F01092BB0186EE61E01EC0D701C601FD
S1130750820F931FA41FB51F2091310130913201E4
S11307604091330150913401821B930BA40BB50BC0
S1130770873E9105A105B10518F4823020F402C02A
S113078086EE01C082E060E0782F715000B601FC73
S1130790FDCF92B7791709F4782F809131019091A8
S11307A03201A0913301B09134019C01AD012F5F5E
S11307B03F4F4F4F5F4F270F311D411D511D2817CC
S11307C039074A075B0710F4782F709571BF1FBF74
S11307D0662319F08CE00E9404021F910F91FF9090
S11307E0EF90DF90CF9008950F9320937902309388
S11307F07A0240937B0250937C0200935E01EFB730
S1130800F894F1E0F093BB0160931802709319021D
S113081080931A0290931B02209343013093440166
S11308204093450150934601EFBF0E9470030F911E
S1130830089580912301882309F052C08091030117
S11308408F3F09F04DC00E94A500882309F448C0D9
S113085081E080932B0280914901882311F010924A
S11308602B0280912B028823E9F10E948E008823B9
S113087011F00E94180180912401823049F5809181
S11308800601882329F5209104012F3FE9F08FEF19
S113089080930601822F90E0FC01E855FE4F3081E1
S11308A0309304013F3F11F43093050188559E4F66
S11308B03FEFFC0130832093960181E08093240173
S11308C08AE00E94040204C02093060110922401CD
S11308D080912401882341F40E94120180E008954C
S11308E081E0089585E0089580E008951F931FB77F
S11308F0F89490910301981719F01FBF81E033C059
S11309008FEF80930301E0912301EE2329F080E02F
S1130910F5E02E2F30E005C00E949F000E941904CC
S11309201CC06F2F0E94631AA901092E02C055959D
S113093047950A94E2F740FF13C09093030121E026
S113094030E002C0220F331F9A95E2F720952E2340
S11309502093230188E00E9404021FBF80E003C0AB
S1130960892F8F5FDECF1F91089584E00E94760463
S1130970089583E00E94760480E008950E949B001D
S113098080912B0190912C0161E00E94D202089584
S113099080E880934701109299011092D502109239
S11309A0D1021092950108950F931F93082F1FB73A
S11309B0F8940E94A500882319F01FBF80E004C0AA
S11309C01FBF802F0E942F021F910F91089589E06D
S11309D00E94D4040895FC0115A68E9640E050E0D0
S11309E060E070E80E946A000895EF92FF920F930E
S11309F01F930E941E017B018C012091A90130915B
S1130A00AA014091AB015091AC018091A401909155
S1130A10A501A091A601B091A701820F931FA41F65
S1130A20B51FE216F3060407150730F08217930783
S1130A30A407B50758F005C082179307A407B507A4
S1130A4090F5E816F9060A071B0768F59C01AD0145
S1130A502E193F09400B510B213060E8360760E046
S1130A60460760E0560710F1D801C701805090484E
S1130A70AF4FBF4F8093A9019093AA01A093AB01FC
S1130A80B093AC0120503048404050402093A40122
S1130A903093A5014093A6015093A70120E030E8CC
S1130AA040E050E013C020E030E0A9018093A901A8
S1130AB09093AA01A093AB01B093AC011092A4014E
S1130AC01092A5011092A6011092A7018CB59DB5B4
S1130AD00396AC014E195F094217530718F4C90174
S1130AE08E0D9F1D009711F481E090E001979BBD4E
S1130AF08ABD80E186BF87B7806187BF1F910F9150
S1130B00FF90EF900895DF92EF92FF920F931F935F
S1130B107B018C010E941E01DFB6F8946093A90149
S1130B207093AA018093AB019093AC01E092A4016D
S1130B30F092A5010093A6011093A7010E94F50469
S1130B40DFBE1F910F91FF90EF90DF9008951F93E8
S1130B501FB7F8940E94B90066E470E00E946F1A0F
S1130B600B969093DE0A8093DD0ABC0180E090E04E
S1130B700E9483051FBF1F9108958FB7F894609159
S1130B802A028FBF85E0689FB0011124625D7E4F09
S1130B90706488E10E943A0208951F931FB7F89485
S1130BA080919401882331F061E070E08091DA0251
S1130BB0882311F460E070E0762F6627770F770FB3
S1130BC0770F80919C01882331F081E090E020919F
S1130BD02102222311F480E090E0626E7262B4E09C
S1130BE0880F991FBA95E1F7682B792B81E10E9450
S1130BF03A021FBF1F910895CF92DF92EF92FF92A6
S1130C000F931F93DF93CF930F92CDB7DEB76C0191
S1130C108A01F22EEFB6F89469830E94A5006981D7
S1130C20882319F0EFBE80E01DC0EFBEC60ED11CB4
S1130C308C2D80680E942F02E82EC6019695879518
S1130C40807C0E942F02CF2CDD2409C0F601EF190D
S1130C50F109E00FF11F80810E942F02FA94FF2016
S1130C60A9F78E2D0F90CF91DF911F910F91FF90D7
S1130C70EF90DF90CF900895DF93CF93CDB7DEB799
S1130C802C970FB6F894DEBF0FBECDBF9FB7F89474
S1130C90DE011196E2E2F2E088E001900D928150CB
S1130CA0E1F720919A0180919B0129878A872091FD
S1130CB0AD018091AE012B878C879FBF80E691E0C8
S1130CC060E0AE014F5F5F4F2CE00E94FC052C9664
S1130CD00FB6F894DEBF0FBECDBFCF91DF9108955C
S1130CE0DF93CF930F92CDB7DEB789830E9444017F
S1130CF090E296BF8981882319F08EB5806402C082
S1130D008EB58F7B8EBD87B7806287BF80E00F90E2
S1130D10CF91DF91089581E00E947006089581309B
S1130D2051F0813018F0823099F40CC081E06C3BB2
S1130D30780771F404C082E06D32780749F41092A8
S1130D401601089581E06036780711F410921601B7
S1130D5008959FB7F89480931F019FBF84E00E9479
S1130D60040208951F93182F21E030E030932601E8
S1130D7020932501109249010E941904812F0E9499
S1130D80A9061F9108950F931F931FB7F89480919C
S1130D902501909126018830910589F40E94E70489
S1130DA00E94B9040E94180181E090E0909326010A
S1130DB08093250183E00E94A9061FBF2FC00E94D3
S1130DC09B008091E10A882311F085E001C084E052
S1130DD00E94D40483FD05C080E00E94D40483FDF6
S1130DE004C001E083E090E003C000E085E090E00F
S1130DF090932601809325010E9418011FBF0023B0
S1130E0039F0109230010E94B9040E94A70506C06F
S1130E1060E471E080E090E00E9483051F910F91EF
S1130E2008959FB7F894E82FF0E0E45EFD4F8081C9
S1130E30882321F481E0808380E001C081E09FBFAA
S1130E4008950F931F93182F0FB7F89480E00E9412
S1130E5011078823E1F5109303010E948E00882373
S1130E6011F088E010C080912401882311F40E94BD
S1130E70EE0180912401882349F481E080932401C8
S1130E80109296018AE00E9404022DC08091A8016C
S1130E908F3F49F481E090E020910501222329F05D
S1130EA080E090E002C081E090E00097E1F480915E
S1130EB004018F3F19F41092040106C0E09105016A
S1130EC0F0E0E855FE4F1082109205010CC021E0BD
S1130ED030E002C0220F331F1A95E2F780912301FC
S1130EE0822B809323010FBF80E01F910F910895FF
S1130EF00F931F93082F1FB7F89480E00E941107E7
S1130F00882319F01FBF85E01BC00E948E00882330
S1130F1079F480912401882379F482E08093240178
S1130F20109206010E94EE010E949D000E949B0007
S1130F300093030180E003C00E949F0081E01FBF73
S1130F401F910F91089582E090E090935C0180934B
S1130F505B0181E08093990180910301843029F041
S1130F6084E00E947807882319F40E94BE0408953F
S1130F7084E00E94210708951F931FB7F89480917D
S1130F805B0190915C010097D1F0109299018091DE
S1130F909501882311F0B79904C00E9908C08823DD
S1130FA019F08150809395010E94A3070AC081E043
S1130FB090E090935C0180935B01109295010E94F4
S1130FC0B5041FBF1F9108950E94C8040E94180110
S1130FD00E949B0088E00E94D40488E00E94D4040C
S1130FE00E9418010E94B5040E94BC070895EF9264
S1130FF0FF920F931F93CF93DF938C018091B101E4
S113100086FF51C18F7B8F3309F090C1C0912B01B2
S1131010D0912C01488140935D0180915B019091B6
S11310205C018530910509F444C08630910509F4CA
S113103092C08230910509F02FC185E090E0909331
S11310405C0180935B0150914701242F30E0852F90
S113105090E02817390754F5B79907C00E9905C0D1
S1131060842F8095850F809347014A32F8F44423F6
S1131070B1F0BE016F5F7F4F483028F080E090E010
S113108047E050E009C086E090E090935C018093D3
S11310905B0180E090E050E00E94B30247C11092EF
S11310A099010E9418010E94B504F3C00E94E4074C
S11310B03DC186E090E090935C0180935B01809158
S11310C09C01882309F440C0809121028823E1F522
S11310D08E010F5F1F4FC8010E94750085FF34C049
S11310E046E0E42EF12CEC0EFD1EC7010E947500B3
S11310F04FB7F8942091AD013091AE014FBF8217E4
S1131100930739F0C7010E9475002FEF8F3F9207B4
S1131110D9F4C8010E9475008770907081309105E0
S113112099F40E9418010E949B008AE00E94D40452
S11311300E9418010E949B0060915D016750CE01DE
S113114008960E94D202F2C0BE01685F7F4F4091B0
S11311505D0147509ECF0E9418018091950188231C
S113116011F40E94B50480919501882311F0B79978
S11311700AC00E9B08C08091D102882321F090916F
S11311805D019B3038F480912B0190912C010E94D9
S1131190EB042FC08130A1F480912B0190912C019C
S11311A0E091D502F0E0EE0FFF1FEE0FFF1FE358B2
S11311B0FD4F40815181628173818E960E946A0045
S11311C08091D50290E00196877090708093D5024B
S11311D08091D10281508093D102882351F0809173
S11311E02B0190912C010E94EB041092D5021092D5
S11311F0D10280915D01FE01E80FF11D808187FF1E
S113120048C00115110509F444C0CE0101960E949D
S11312107500877030912B0120912C01823099F553
S1131220E0919D01F0919E01309799F18091250103
S1131230909126018730910561F5832FEC017E01A1
S1131240F22EE70193818B81981719F50E941A01F8
S1131250A0919D01B0919E019D01285D3F4F888121
S113126091E0F9019483C80FD11DCE010197FC01CF
S1131270808198968C9388818F77F901818380E0AF
S11312800E94B20606C0813021F48BE00E94040261
S11312904DC00E94BC074AC0109299010E941801D7
S11312A00E94B50443C08E3309F040C00E94180167
S11312B080912501909126018830910591F40E9436
S11312C09B000E94E7040E9418010E94B90481E077
S11312D090E0909326018093250183E00E94A90663
S11312E025C08091E10A882349F484E090E090933A
S11312F02601809325010E94C30618C00E94B904E8
S113130083E090E090932601809325010E94B90028
S113131066E371E00E946F1A0B96909342018093EA
S11313204101BC0180E090E00E948305DF91CF91F0
S11313301F910F91FF90EF9008951F9383E00E94F7
S11313407807182F882319F083E00E942107812F42
S11313501F910895EF92FF920F931F93CF93DF9302
S1131360EC010FB7F8940E94B6012FE3FC0120832F
S11313700FBF1092D8021092D70282E00E94110788
S1131380882309F066C080912C02982F9F5F909368
S11313902C028B83EFB6F89482E00E9484008823A9
S11313A029F4EFBE0E94340381E056C08E01085D2B
S11313B01F4F84E00E947E00D093BA01C093B9010C
S11313C0EFBE7E010894E11CF11CC7010E94750068
S11313D080729C7C89839A83C7010E947500816412
S11313E089839A83F801148218A61182CE018E96FD
S11313F040E050E060E070E80E946A0051E05093E1
S113140020022091B9013091BA014FB7F89480912C
S11314102501909126018830910519F081309105BC
S113142011F04FBF18C082E090E0909326018093A2
S113143025015093E10A30939E0120939D0110925F
S113144030014FBF0E949D09882329F40E94F902AC
S113145002C085E001C080E0DF91CF911F910F9120
S1131460FF90EF900895EF92FF920F931F93DF93F5
S1131470CF9300D00F92CDB7DEB72D3108F04EC018
S11314808A01FA018387668377833FB7F894909142
S11314909A0180919B013FBF948385833FB7F89461
S11314A090910701809108013FBF90878187CA010D
S11314B0019629834A835B830E947500BC016064A2
S11314C07868F801618372832981822F835F808326
S11314D080910A014A815B81882341F010920A01BC
S11314E0CA010E94AA09882389F41BC02093B5016C
S11314F01092B6014093290150932A018EE00E9474
S1131500040280910A01882359F004C09FEF90934C
S11315100A0107C01092A30180E003C082E001C069
S113152089E00F900F900F90CF91DF911F910F9151
S1131530FF90EF900895EF92FF920F931F93DF9324
S1131540CF9300D0CDB7DEB78091020190E0019631
S113155063E070E00E94831A10E023E030E0482F3B
S113156050E0FA01EE0FFF1FEE50FE4F60817181D3
S11315706115710599F0E82FE695E695E695F0E09A
S1131580EA52FD4F608170E0FA01E770F07002C02A
S113159075956795EA95E2F760FF09C0CA0101965F
S11315A0B9010E94831A1F5F1330C9F622C08093C9
S11315B00201E0910201E330F8F4F0E0EE0FFF1FC6
S11315C0EE50FE4F408151818A01C801069649833D
S11315D05A830E947500BC01F80120812D50838537
S11315E0A8010E94330A882339F081E00E94040292
S11315F003C010930201DDCF0F900F90CF91DF91C4
S11316001F910F91FF90EF9008950F931F93DF9315
S1131610CF930F92CDB7DEB79C0180910201833046
S1131620A0F4E82FF0E0EE0FFF1FEE50FE4F008114
S113163011810217130749F41182108289830E94D1
S11316409B0A8981B8010E948F060F90CF91DF9188
S11316501F910F910895CF92DF92FF920F931F93E2
S1131660DF93CF9300D0CDB7DEB7082F162F83308A
S113167088F5C82EDD24CC0CDD1C82EF91E0C80E69
S1131680D91EF60180819181009731F560837183C1
S1131690E62FF72F842F835F8083809102018330AC
S11316A0E8F0F384CF01069649837A830E9475009B
S11316B0BC01009302018F2D412F5A8129810E9480
S11316C0330A882361F093E090930201F6011182BA
S11316D0108205C081E003C085E001C080E00F9066
S11316E00F90CF91DF911F910F91FF90DF90CF90DA
S11316F00895EF92FF920F931F938093C9019093E3
S1131700C801ECECF1E041835093CC01E382F09208
S1131710CE0105831093D0012093CB013093CA01ED
S113172070976093C201778382E0838780E0BF0172
S11317304AE00E942B0B882319F481E08093160160
S11317401F910F91FF90EF900895FB01868397837B
S113175084E0838782E048E00E942B0B0895EBE34A
S1131760F2E0818390933B02438350933D02609364
S11317703A0270933902C901BF016E5070400E9451
S1131780A50B882319F481E08093160108958093B2
S11317906D0190936C01EEE6F1E0618370936E014C
S11317A0909100018091010193838093700145839E
S11317B0509372018FEF9FEFBF016E5070400E94F3
S11317C0A50B882319F481E08093160108957F9274
S11317D08F929F92AF92BF92CF92DF92EF92FF923D
S11317E00F931F93CF93DF934B015C01CAEFD1E0BA
S11317F060E070E0FB0113E0EE0FFF1F1A95E1F7C4
S1131800E60FF71FBAEFCB2EB1E0DB2ECE0EDF1EB4
S1131810D60118967C90189771FED6C0888199815C
S1131820AA81BB81EC80FD800E811F81A5019401FA
S1131830281B390B4A0B5B0B2E153F05400751073C
S113184008F4C2C070FE06C0EE5FFD4F80818D7F3C
S1131850808309C08E0D9F1DA01FB11FF6018083D8
S11318609183A283B383613021F0623009F0B3C065
S1131870A8C020910001309101012130310509F007
S1131880AAC08091170190911801019690931801B4
S1131890809317013093B8012093B70109C00E94C7
S11318A0B9008370907001969093B8018093B7014A
S11318B02091B7013091B80180910001909101010C
S11318C02817390761F30E94B90066E970E00E94A5
S11318D06F1A90935A018093590110922D0110921E
S11318E01A011092190111E030C0EC01CC0FDD1F78
S11318F0C80FD91FCC0FDD1FCE018F599D4F0E94F9
S1131900B0007C018091B7019091B801E816F90606
S113191099F4CE018D599D4F0E94B0009C016091B5
S11319200001709101014091590150915A01C70180
S11319300E94AF0B10932D018091190190911A010F
S1131940019690931A018093190180911901909145
S11319501A018430910524F420912D01222329F2C7
S113196080912D018823B9F56091000170910101E6
S11319704091B7015091B8018091170190911801DD
S11319800E94C70B0E943A0360930C0270930D02ED
S113199080930E0290930F0288EE93E0A0E0B0E0F3
S11319A08093100290931102A0931202B093130239
S11319B0809114028360809314028DE00E940402DB
S11319C00AC00E94640307C06F5F7F4F299663308B
S11319D0710509F00FCF8DE00E940402DF91CF91D1
S11319E01F910F91FF90EF90DF90CF90BF90AF9039
S11319F09F908F907F9008952F923F924F925F9285
S1131A006F927F928F929F92AF92BF92CF92DF920A
S1131A10EF92FF920F931F93DF93CF93CDB7DEB76F
S1131A20AE970FB6F894DEBF0FBECDBF873009F472
S1131A302EC1883098F4833009F4C0C0843038F45F
S1131A40813009F448C0823008F059C01DC0853087
S1131A5009F4FFC0863008F015C1B4C08B3009F416
S1131A6028C28C3038F4893009F4F5C18A3008F082
S1131A700BC241C18D3009F411C68D3008F4E5C59F
S1131A808E3009F084C664C68091D602882309F496
S1131A907EC602EF11E090E0EE24E3942091D6029A
S1131AA08E2D822381F0D8016D917C9111971D9226
S1131AB01C928E2D809582238093D602892F9DA718
S1131AC00E948F069DA59F5F0E5F1F4F983009F4FB
S1131AD05EC6EE0CE3CF80910201E82FF0E0EE0F3A
S1131AE0FF1FEE50FE4F00811181118210828DA7DD
S1131AF00E949B0A8DA5B8010E948F0648C6EFB6C6
S1131B00F8940E948B0601E010E0109326010093E4
S1131B102501109227011092490110925F01EFBE36
S1131B20EFB6F8940E94C80410935C0100935B0123
S1131B30109299010E94400180E488BF8AB78062B4
S1131B408ABF8AB78F7E8ABF89B7806489BFEFBE98
S1131B500FB7F89480912001909121018430910570
S1131B6019F483E00E94D4040FBF0FB7F8940E94C5
S1131B70180180E00E9476040FBF82E00E947E007C
S1131B800E943A0360930302709304028093050257
S1131B909093060280E395E7A0E0B0E0809307020B
S1131BA090930802A0930902B0930A0280910B0259
S1131BB08E7F826080930B028DE09AC080E00E9449
S1131BC07E00E5C58FB7F8948FBF83E00E94840040
S1131BD0882351F10FB7F894109226011092250131
S1131BE00E941A010E94440183E00E9476040E942C
S1131BF018010FBF0FB7F89410925C0110925B01AB
S1131C000E94C8040E9418010E9440010FBF109254
S1131C102101109220010E943E01DD980E943C01A6
S1131C2083E00E94040203C082E00E947E000091CF
S1131C30B9011091BA010E9434038091D7029091A6
S1131C40D802009709F0A3C58FEF80930A01C80159
S1131C5098C50FB7F8948091DF0A882309F09AC0D9
S1131C6081E08093DF0A80912001909121018430EA
S1131C70910521F481E00E9421078CC086E00E9436
S1131C80040288C08FB7F8941092DF0A06C08FB799
S1131C90F89490912201992311F08FBF78C58FBFDA
S1131CA001E0869B00E08091AF019091B00198170C
S1131CB0E1F00817D1F484E090E09093210180933F
S1131CC020018FB7F89491E0909322018FBF8DE1AA
S1131CD060E070E00E943A020E943C060E941801F3
S1131CE00E949B0082E00E9404020093B00187E0FE
S1131CF00E9404024CC59FB7F894809103019FBFD2
S1131D00823009F462C0833030F4882359F0813082
S1131D1009F03DC541C0833009F471C0843009F035
S1131D2036C596C00E949B000FB7F894809120019D
S1131D30909121018230910569F583E090E09093C0
S1131D402101809320018DE168E170E00E943A0254
S1131D5081E08093AF0110922201869B80E0809302
S1131D60B00187E00E94040281E00E94D4048CE167
S1131D706FE772E00E943A020E94BD050E94CD0501
S1131D8087E166E57AE20E943A0285E16FEF70E846
S1131D900E943A020FBFFBC40E949B0086E00E948F
S1131DA0D4040E94BD050E94CD050E943C060E94F9
S1131DB018010E949B0083E00E94D4040E94180131
S1131DC081E00E94760486E093CF0E949B000FB7C7
S1131DD0F8940E94A500882311F00FBF0AC00FBF1A
S1131DE083E50E942F0280E00E942F0280E00E947F
S1131DF02F020E94180182E00E947604C8C49FB793
S1131E00F894809125019FBF843039F0883041F0E7
S1131E108230D9F40E94F902BAC40E94C306B7C43E
S1131E200E949B000E94E7040E9418010E94B904CA
S1131E302FB7F89481E090E09093260180932501D8
S1131E402FBF83E00E94A906A2C40E94B9049FC4C4
S1131E500E94BE049CC40FB7F8948091150290911F
S1131E60160210921602109215021092DC021092C1
S1131E70DB0210922F0110922E011092F1011092A8
S1131E80F0010E94F70786CF8FB7F89490919601DE
S1131E909093060192E0909324018FBF80910601F4
S1131EA0882309F074C40E949D000E949B0088E06E
S1131EB01FCFE0912B01F0912C01CF018896E08097
S1131EC0AF014E0D511DDA012C91221F2227221F32
S1131ED0DC0113962C93DA012C912F77DC011196F7
S1131EE02C93DA0111978C9180A700912B0110910A
S1131EF02C01C80101960E947500292F9FB7F89400
S1131F00809194019FBF882309F468C0822F86952D
S1131F10869590E0837090708230910511F50A5F88
S1131F201F4FC8010E9475004FB7F8942091AD016E
S1131F303091AE014FBF8217930761F0C8010E9430
S1131F40750021E030E0BFEF8F3F9B0729F020E0D0
S1131F5030E002C021E030E02115310509F46DC301
S1131F603DC08330910509F068C3DE015996E2E271
S1131F70F2E088E001900D928150E1F7DE011996BC
S1131F80FE01799688E001900D928150E1F7DE011F
S1131F909196FE01399688E001900D928150E1F707
S1131FA0DE015196FE01B19688E001900D928150B8
S1131FB0E1F7DE011196FE01719688E001900D9221
S1131FC08150E1F7C8010696BE016F5F7F4F48E07C
S1131FD050E00E94EC1A009709F02FC3EE2DED306B
S1131FE008F42BC3C0902B01D0902C01C60101969C
S1131FF00E947500492F892F8695869590E09C0153
S113200023703070842F829586958695837090E036
S11320108330910519F042E050E002C048E050E0FE
S11320202330310519F0E2E0F0E002C0E8E0F0E02E
S11320303696EC0DFD1D80E090E020E030E06191EB
S1132040860F911D2F5F3F4F24173507C4F3D60128
S113205013967C912FEF2093D902AFB7F894609137
S1132060D902E5E3F1E020E030E0408151814817F6
S1132070590741F44281471721F46093D902AFBF55
S1132080D8C2622F2F5F3F4F33962430310569F752
S11320906093D902AFBF2091D9025FB7F8942F3F64
S11320A021F030912801321721F42091280141E0D8
S11320B001C040E030E0F901EE0FFF1FE20FF31F13
S11320C0EB5CFE4F918380837283442331F08091D3
S11320D028018F5F8370809328015FBF0FB7F89446
S11320E0C6010E94B601FC0180810FBFD6019B96F8
S11320F09C919B97992309F49CC28F3309F099C250
S113210086010A5F1F4FC8010E9475004FB7F894FB
S113211020910701309108014FBF8217930761F0A6
S1132120C8010E94750021E030E0BFEF8F3F9B079C
S113213029F020E030E002C021E030E02115310533
S113214009F477C21CE0812E912C8C0C9D1C8E2DE1
S11321508D50F6019385943009F42EC1963009F41C
S1132160F8C1923009F065C28A3009F062C2109257
S11321702D0110921A0110921901BEE04B2E512C20
S11321804C0C5D1CA2E16A2E712C6C0C7D1CF4E1DC
S11321902F2E312C2C0C3D1C39C0C2010E94B000E2
S11321A0A816B90661F5E5E6AE2EE2E0BE2EA00E55
S11321B0B11EC5010E94B0008C01C3010E94B00091
S11321C08017910718F001151105B1F4C1010E949F
S11321D0B000F701EE0FFF1FEE0DFF1DEE0FFF1F06
S11321E0ED59FD4F81839083C3010E94B000D50156
S11321F011968C9311979C93B1E0B0932D010894A0
S1132200E11CF11CF0921A01E0921901E09019010D
S1132210F0901A018701000F111F0E0D1F1D000FF2
S1132220111FC8018F599D4F0E94B0005C01009797
S113223049F080912D01882329F4E4E0EE16F1049D
S11322400CF4ABCF80912D01882331F5F4E0EF1627
S1132250F10414F5C40102960E94B0008701000F36
S1132260111F0E0D1F1D000F111FF801EF59FD4F17
S113227081839083C40108960E94B000F801ED594F
S1132280FD4F81839083C40106960E94B000F8013B
S1132290EB59FD4F8183908394E0A92EB12CA80CB7
S11322A0B91CC5010E94B0002091000130910101C8
S11322B08217930709F4BDC110922D0110921A01DF
S11322C010921901C40102969AA789A7D4011696FF
S11322D0BCA7ABA752C083E0EE0CFF1C8A95E1F7C4
S11322E0C70181529D4F0E94B0008C01C5010E941C
S11322F0B00008171907C1F5C7018D519D4F0E9401
S1132300B0008C0189A59AA50E94B000081719078E
S113231059F5B1E0B0932D01C4010E94B0002C0125
S1132320C7018F519D4F0E94B0003C01C5010E941E
S1132330B0001C0189A59AA50E94B0009C018BA540
S11323409CA52DA73EA70E94B0000091000110910A
S113235001017C010894E11CF11CC201B301A1013B
S11323602DA53EA50E94790B8091190190911A0127
S1132370019690931A0180931901E0901901F0904D
S11323801A01EFEFEE16F10409F02CF480912D01FF
S1132390882309F4A0CF80912D01882319F049C125
S11323A0019602C080E090E084309105CCF39093D4
S11323B01A01809319013DC1883009F03AC10EE039
S11323C0602E712C6C0C7D1CC3010E94B0005C015A
S11323D0E0900001F09001018E159F0509F427C1DA
S11323E012E1412E512C4C0C5D1CC2010E94B00024
S11323F08C018E159F0591F4C4010E94B0007C01EC
S1132400C60140960E94B000BC01C701A501980115
S1132410B1E0EB2EF12C0E94790B0BC11092480114
S113242010921A01109219012224239433C07501C9
S1132430A3E0EE0CFF1CAA95E1F7C70183529D4F60
S11324400E94B0008C01C4010E94B0000817190753
S1132450D1F4C70181529D4F0E94B0008C01C30189
S11324600E94B0000817190771F4C7018D519D4FE0
S11324700E94B0008C01C2010E94B0000817190725
S113248011F4209248010894A11CB11CB0921A01C5
S1132490A0921901A0901901B0901A01FFEFAF1694
S11324A0B10409F02CF480914801882309F4BFCFCA
S11324B080914801882309F0BCC080911B01909150
S11324C01C01019690931C0180931B018F3F910581
S11324D029F024F010921C0110921B0100911B01A1
S11324E010911C01C4010E94B000F3E0000F111F01
S11324F0FA95E1F7F801E352FD4F81839083C3011C
S11325000E94B000F801E152FD4F81839083C40121
S113251004960E94B000F801EF51FD4F818390832F
S1132520C2010E94B000F801ED51FD4F81839083F8
S1132530C4010E94B0007C01C3010E94B0008C0160
S1132540C2010E94B000AC01C701B8010E94C70BD0
S113255070C0863009F06DC0EEE0EE2EF12CEC0C6C
S1132560FD1CC7010E94B0002091000130910101BF
S11325708217930709F45DC010922D0110921A017D
S1132580109219012224239470E1472E512C4C0CF3
S11325905D1C40C0C901880F991F820F931F880FCB
S11325A0991F8F599D4F0E94B0008C01C7010E9452
S11325B0B0000817190729F520922D010E94640321
S11325C0C7010E94B0008C01C4010E94B0005C01EC
S11325D0C2010E94B0003C012091190130911A01FE
S11325E0C901880F991F820F931F880F991F8D5956
S11325F09D4F0E94B0009C01C801B501A3010E9437
S1132600AF0B8091190190911A01019690931A01D0
S1132610809319012091190130911A012430310558
S113262044F480912D01882309F4B4CF02C0CC2452
S1132630DD24D0922C01C0922B018FB7F894109214
S113264099018FBF0E94BC07A2C080915E018823BC
S113265011F5EFB7F89460914301709144018091B2
S11326604501909146012091180230911902409140
S11326701A0250911B02620F731F841F951FEFBF34
S11326802091790230917A0240917B0250917C0230
S113269000E00E94F4030E943A034FC00E943A03F0
S11326A09B01AC018FB7F8941092BB018FBFEAEF86
S11326B0F1E088249FEFE92E9FEFF92E9FEF092F79
S11326C09FE7192F60E070E0DB0183E0AA0FBB1FD6
S11326D08A95E1F7A60FB71FA650BE4F18968C91A6
S11326E0189781FF1BC080819181A281B381590118
S11326F06A01A81AB90ACA0ADB0A84819581A681EB
S1132700B7818A199B09AC09BD098E159F05A007DD
S1132710B10724F47C018D01882483946F5F7F4F7B
S113272039966330710581F6882089F11E141F04DF
S1132730100611062CF0CA01B9010E94E70B27C04C
S1132740CA01B901A801970101E00E94F4031FC066
S11327508091A30190910A018917C9F080930A011D
S1132760882391F48091290190912A010E94AA0959
S1132770882369F08FEF80930A0180912901909159
S11327802A010E94050B03C08FEF80930A01AE96C5
S11327900FB6F894DEBF0FBECDBFCF91DF911F916E
S11327A00F91FF90EF90DF90CF90BF90AF909F90EC
S11327B08F907F906F905F904F903F902F900895EF
S11327C00E9465018F3F21F00E94FC0C81E0089576
S11327D080E008958FB7F89408958FBF08950F93FC
S11327E01F93DF93CF93CDB7DEB728970FB6F89436
S11327F0DEBF0FBECDBF1FB7F8948AE491E06FEF40
S113280070E04FE050E00E94F91A8FEF8093D202FB
S11328108093E00A81E08EBD88E080BF83E083BFBF
S11328208CB59DB54AE701C0C9012CB53DB5281743
S1132830390708F441504423B9F782B792B798177F
S1132840E9F32CB53DB582B792B79817E9F38CB587
S11328509DB54096821B930B75E0969587957A9566
S1132860E1F79093D4028093D30213BE83B78EBD55
S11328708EB580BF12BE1DBC1CBC8FEF86BF86B751
S113288080937C0080B790E0877090700097D1F7B8
S1132890D29AD19AD09ADA9AD99AD89A15BA8FEF4D
S11328A084BBD498DC981DBC1CBC87B7846087BFEC
S11328B08EB5887F84608EBD0E94E0138823E1F783
S11328C00FEF009397018FEF9FEF90933601809362
S11328D03501109237019093390180933801109299
S11328E03A0190933C0180933B0110923D019093F7
S11328F03F0180933E01109240010E94B9008093F1
S11329002C0280910001909101010196A0E0B0E0B9
S113291080939F019093A001A093A101B093A20181
S113292080B7886080BF8BE083BF86EE81BF87B7A6
S1132930826087BF0E9470038DE992E090932C011E
S113294080932B018E980E949D008C980093A8017F
S113295010921C0210921D0210921E0210921F026D
S11329600E949D00D69AD59A2FB7F89480910701BA
S1132970909108012FBF9093AE018093AD010E9406
S1132980480129833A834B835C836D837E838F83E1
S11329909887A2E2B2E0FE01319688E001900D92A0
S11329A08150E1F78091090180939A0110929B0173
S11329B08FE1809317028AE180932A020E944801E2
S11329C029833A834B835C836D837E838F839887CB
S11329D0A2E2B2E0FE01319688E001900D928150AE
S11329E0E1F7EAE2F2E0DF0118978C9192919D936E
S11329F0808382E0E632F807C1F781E08093940196
S1132A001092DA0280939C01109221020E94E0133A
S1132A108823E1F71FBF789410921A0110921901CC
S1132A201CC0C901880F991F820F931F880F991F1B
S1132A30FC01EF59FD4F11821082FC01ED59FD4F4D
S1132A4011821082FC01EB59FD4F118210822F5F1D
S1132A503F4F30931A0120931901209119013091AD
S1132A601A0124303105ECF210921A011092190166
S1132A701AC09C0143E0220F331F4A95E1F7F90184
S1132A80ED51FD4F11821082F901E352FD4F118285
S1132A901082F901E152FD4F118210820196909348
S1132AA01A01809319018091190190911A018430BF
S1132AB09105FCF210921E0110921D0181E00E940A
S1132AC011078823C9F42FB7F894809120019091BD
S1132AD02101009711F02FBF17C081E090E090937F
S1132AE02101809320012FBFDD9A64E170E080E032
S1132AF090E00E94830508C082E00E94840088233D
S1132B0019F481E00E9484001FB7F89446C087B787
S1132B10887BA1F480917D008B7F81F46E990EC037
S1132B209AB180919A00892B887141F48091740044
S1132B3082FD04C0379B04C021E003C020E001C033
S1132B4025E087B790E083709070009779F080B7A4
S1132B5090E0877090700097D1F781B792B7891B86
S1132B608C3030F082B7853F28F002C0E5E003C026
S1132B70E2E001C0E3E085B72E1708F4E22FF0E0AD
S1132B80E457FF4FE491837C80628E2B85BF789459
S1132B908895F89485B78F7D85BF0E9465018F3F26
S1132BA009F4B5CF1FBF0E94FC0CAECF1F920F9249
S1132BB00FB60F920BB60F9211242F933F934F939E
S1132BC05F936F937F938F939F93AF93BF93EF9391
S1132BD0FF930E947B0121B730E02F5F3F4F40E01D
S1132BE050E08091310190913201A0913301B09174
S1132BF03401820F931FA41FB51F8093310190935A
S1132C003201A0933301B093340178940E9470038D
S1132C10FF91EF91BF91AF919F918F917F916F91B0
S1132C205F914F913F912F910F900BBE0F900FBE6C
S1132C300F901F9018951F920F920FB60F920BB61C
S1132C400F9211242F933F934F935F936F937F932E
S1132C508F939F93AF93BF93EF93FF930E947B0156
S1132C60FF91EF91BF91AF919F918F917F916F9160
S1132C705F914F913F912F910F900BBE0F900FBE1C
S1132C800F901F90189578941F920F920FB60F9281
S1132C900BB60F9211241F932F933F934F935F937F
S1132CA06F937F938F939F93AF93BF93EF93FF9310
S1132CB00E941A0178941FB7F8948091A40190910E
S1132CC0A501A091A601B091A7010097A105B105A6
S1132CD009F051C08091250190912601853091051C
S1132CE061F18630910538F48330910559F08430D0
S1132CF0910561F519C087309105E9F08830910597
S1132D0029F512C0869B0DC084E090E090932601C3
S1132D108093250167E070E080E090E00E948305E5
S1132D2015C00E94A70512C00E949D09882371F452
S1132D300E94C3060BC080E007C00E94E7040E9403
S1132D408B060E94B90487E00E94B206809120019C
S1132D50909121018130910581F482E090E090937B
S1132D602101809320010E943E010E943C0180E0E9
S1132D700E94210702C00E94F5041FBFFF91EF913A
S1132D80BF91AF919F918F917F916F915F914F917F
S1132D903F912F911F910F900BBE0F900FBE0F907C
S1132DA01F90189578941F920F920FB60F921124CA
S1132DB00F900FBE0F901F90189578941F920F924A
S1132DC00FB60F9211240F900FBE0F901F901895FD
S1132DD078941F920F920FB60F920BB60F92112494
S1132DE06F927F928F929F92AF92BF92CF92DF9217
S1132DF0EF92FF920F931F932F933F934F935F9301
S1132E006F937F938F939F93AF93BF93EF93FF93AE
S1132E10DF93CF930F92CDB7DEB7C6B4D7B4BFB6A6
S1132E20F8940E941E019B012C193D0940E050E0DA
S1132E307B018C01E21AF30A040B150B8091250126
S1132E40909126018530910529F08630910509F08D
S1132E5080C05DC086E090E09093260180932501B8
S1132E6081E0809398011092270180E00E9470060F
S1132E7080919D0190919E018E96B801A7010E94B8
S1132E806A00E0919D01F0919E0185A5882351F18E
S1132E90208125503F01620E711CC30129830E94C9
S1132EA08101AB01BC014E195F09600B710BC301B9
S1132EB00E946A000E949B0080E090E02981622FBA
S1132EC0A30124E00E94FC050E941801C3010E9492
S1132ED08101AB01BC014E0D5F1D601F711FC30159
S1132EE00E946A0080919D0190919E0101960E942A
S1132EF0750085FF03C081E0809349010E94B904F5
S1132F000E941A010E94AC01882309F07BC0109230
S1132F1098010E948B0680919D0190919E010196DB
S1132F200E94750085FF0DC087E090E09093260114
S1132F308093250160E071E080E090E00E948305C9
S1132F4003C080E00E94B2060E94AC01882309F409
S1132F5059C080912701882379F5809198018823AD
S1132F6059F581E08093980180E00E9470060E94E8
S1132F70AC01A82E8091D102883090F4E091D50262
S1132F80E80FE770F0E0EE0FFF1FEE0FFF1FE358AE
S1132F90FD4FE082F182028313838F5F8093D1021D
S1132FA081E080932701D092B401C092B3010E94C2
S1132FB0AC01882311F026C0AA24809198018130A5
S1132FC009F5109298010E948B0610922701AA20FD
S1132FD0C9F48091B3019091B401C81AD90A2AE0C6
S1132FE0C216D10478F48091D102882319F081505B
S1132FF08093D10280919D0190919E01009711F0E0
S11330000E94EB04BFBE0F90CF91DF91FF91EF912F
S1133010BF91AF919F918F917F916F915F914F91EC
S11330203F912F911F910F91FF90EF90DF90CF90E0
S1133030BF90AF909F908F907F906F900F900BBE3A
S11330400F900FBE0F901F90189578941F920F92B7
S11330500FB60F9211242F938F939F932FB7F89449
S11330608091F8019091F90101969093F901809370
S1133070F8012FBF9F918F912F910F900FBE0F904A
S11330801F9018951F920F920FB60F9211240F9054
S11330900FBE0F901F9018951F920F920FB60F92AC
S11330A011240F900FBE0F901F9018951F920F922E
S11330B00FB60F9211240F900FBE0F901F9018950A
S11330C01F920F920FB60F9211240F900FBE0F9004
S11330D01F9018951F920F920FB60F9211240F9004
S11330E00FBE0F901F9018951F920F920FB60F925C
S11330F011240F900FBE0F901F9018951F920F92DE
S11331000FB60F920BB60F9211242F933F934F9348
S11331105F936F937F938F939F93AF93BF93EF933B
S1133120FF9380915B0190915C018130910549F49A
S113313082E090E090935C0180935B010E94A3077E
S113314005C0809195018F5F80939501FF91EF9168
S1133150BF91AF919F918F917F916F915F914F91AB
S11331603F912F910F900BBE0F900FBE0F901F90A9
S113317018951F920F920FB60F9211240F900FBE45
S11331800F901F9018951F920F920FB60F920BB6C7
S11331900F9211242F933F934F935F936F937F93D9
S11331A08F939F93AF93BF93EF93FF932FB180912E
S11331B0150290911602009739F0E091F001F09118
S11331C0F101E80FF91F20838091F0019091F10142
S11331D001969093F1018093F00180E00E94B00188
S11331E02091F0013091F10180912E0190912F01F5
S11331F02817390718F40E94590217C08091150244
S11332009091160210921602109215021092DC028E
S11332101092DB0210922F0110922E011092F101F4
S11332201092F0012FB10E94F707FF91EF91BF9127
S1133230AF919F918F917F916F915F914F913F914A
S11332402F910F900BBE0F900FBE0F901F901895EB
S1133250ACE2B0E0EEE2F9E10C94B51A29833A83CA
S11332604B835C836D837E838F839887A986BA861C
S1133270CB86DC86ED86FE860F87188B69807A8084
S11332808B809C8069A27AA28BA29CA28401730188
S11332908FEF9FEFA0E0B0E0E822F9220A231B237E
S11332A014014424552469847A848B849C846DA2FB
S11332B07EA28FA298A664015301A822B922CA2231
S11332C0DB22340188249924C601B501A8019701A1
S11332D00E94961A69A77AA78BA79CA7C401B30179
S11332E00E94961A7B018C01C601B501A2019101CD
S11332F00E94961A5B016C01C401B3010E94961AE4
S11333009B01AC01EA0CFB1C0C1D1D1D69A47AA4D5
S11333108BA49CA4C401AA27BB27E80EF91E0A1F8C
S11333201B1FEA14FB040C051D0520F4205030403B
S11333304F4F5F4FC801AA27BB27820F931FA41FBB
S1133340B51F8D8F9E8FAF8FB8A38701FF24EE2406
S113335029A53AA54BA55CA540705070E20EF31E5A
S1133360041F151FE98EFA8E0B8F1C8FDE2CAA8C7E
S1133370CB8C6C8C8D8B8E8D8E8B8F8D8F8B88A14F
S1133380888F2D853E854F85588969A17AA18BA1A7
S11333909CA10E94961A7B018C012D813E814F8154
S11333A058856DA17EA18FA198A50E94961AE60E5C
S11333B0F71E081F191F6D897E898F89988D6E0DE0
S11333C07F1D801F911F6D8B7E8B8F8B988F7E89C5
S11333D02D2D3A2D4C2D562D8F89988DAC96E2E1EA
S11333E00C94D11A0F93DF93CF93CDB7DEB76097C8
S11333F00FB6F894DEBF0FBECDBF002309F459C049
S113340029833A834B835C836D837E838F83988780
S1133410E0E2E01B2D813E814F8158851E16BCF0F1
S11334201D861E861F86188A8E2F992787FD9095E4
S1133430909581959F4F04C056954795379527954C
S11334408A95D2F729873A874B875C872AC0CA01B5
S1133450B901002E04C096958795779567950A94CF
S1133460D2F76D877E878F87988BDA01C90104C0F4
S1133470880F991FAA1FBB1FEA95D2F729813A81A9
S11334804B815C8104C056954795379527950A95DD
S1133490D2F7822B932BA42BB52B89879A87AB87E2
S11334A0BC8729853A854B855C856D857E858F85AE
S11334B0988960960FB6F894DEBF0FBECDBFCF914A
S11334C0DF910F910895991B79E004C0991F961715
S11334D008F0961B881F7A95C9F780950895AA1B52
S11334E0BB1B51E107C0AA1FBB1FA617B70710F0EB
S11334F0A61BB70B881F991F5A95A9F7809590951D
S1133500BC01CD01089597FB092E07260AD077FD4B
S113351004D0E5DF06D000201AF4709561957F4F42
S11335200895F6F7909581959F4F0895629FD00175
S1133530739FF001829FE00DF11D649FE00DF11D6A
S1133540929FF00D839FF00D749FF00D659FF00D19
S11335509927729FB00DE11DF91F639FB00DE11D06
S1133560F91FBD01CF01112408952F923F924F926C
S11335705F926F927F928F929F92AF92BF92CF92FF
S1133580DF92EF92FF920F931F93CF93DF93CDB708
S1133590DEB7CA1BDB0B0FB6F894DEBF0FBECDBF80
S11335A009942A88398848885F846E847D848C8451
S11335B09B84AA84B984C884DF80EE80FD800C815A
S11335C01B81AA81B981CE0FD11D0FB6F894DEBF3D
S11335D00FBECDBFED010895FB01DC0104C08D9148
S11335E00190801921F441505040C8F7881B990B71
S11335F00895DC0101C06D9341505040E0F70895F7
S1073600F894FFCF68
S1133604010003FFFFFFFF010022FFFFFF00009CF6
S1093614FF0200080000A3
S9030000FC
